{
  "_format": "hh-sol-artifact-1",
  "contractName": "WavePortal",
  "sourceName": "contracts/WavePortal.sol",
  "abi": [
    {
      "inputs": [],
      "stateMutability": "payable",
      "type": "constructor"
    },
    {
      "anonymous": false,
      "inputs": [
        {
          "indexed": true,
          "internalType": "address",
          "name": "from",
          "type": "address"
        },
        {
          "indexed": false,
          "internalType": "uint256",
          "name": "timestamp",
          "type": "uint256"
        },
        {
          "indexed": false,
          "internalType": "string",
          "name": "message",
          "type": "string"
        }
      ],
      "name": "NewWave",
      "type": "event"
    },
    {
      "inputs": [],
      "name": "getAllWaves",
      "outputs": [
        {
          "components": [
            {
              "internalType": "address",
              "name": "waver",
              "type": "address"
            },
            {
              "internalType": "string",
              "name": "message",
              "type": "string"
            },
            {
              "internalType": "uint256",
              "name": "timestamp",
              "type": "uint256"
            }
          ],
          "internalType": "struct WavePortal.Wave[]",
          "name": "",
          "type": "tuple[]"
        }
      ],
      "stateMutability": "view",
      "type": "function"
    },
    {
      "inputs": [],
      "name": "getTotalWaves",
      "outputs": [
        {
          "internalType": "uint256",
          "name": "",
          "type": "uint256"
        }
      ],
      "stateMutability": "view",
      "type": "function"
    },
    {
      "inputs": [
        {
          "internalType": "address",
          "name": "user",
          "type": "address"
        }
      ],
      "name": "getUserWaves",
      "outputs": [
        {
          "internalType": "uint256",
          "name": "",
          "type": "uint256"
        }
      ],
      "stateMutability": "view",
      "type": "function"
    },
    {
      "inputs": [
        {
          "internalType": "string",
          "name": "_message",
          "type": "string"
        }
      ],
      "name": "wave",
      "outputs": [],
      "stateMutability": "nonpayable",
      "type": "function"
    }
  ],
  "bytecode": "0x60806040526200004f6040518060400160405280601d81526020017f546869732069732061207465737420736d61727420636f6e74726163740000008152506200005560201b620005c51760201c565b620001e9565b620000f5816040516024016200006c919062000162565b6040516020818303038152906040527f41304fac000000000000000000000000000000000000000000000000000000007bffffffffffffffffffffffffffffffffffffffffffffffffffffffff19166020820180517bffffffffffffffffffffffffffffffffffffffffffffffffffffffff8381831617835250505050620000f860201b60201c565b50565b60008151905060006a636f6e736f6c652e6c6f679050602083016000808483855afa5050505050565b60006200012e8262000186565b6200013a818562000191565b93506200014c818560208601620001a2565b6200015781620001d8565b840191505092915050565b600060208201905081810360008301526200017e818462000121565b905092915050565b600081519050919050565b600082825260208201905092915050565b60005b83811015620001c2578082015181840152602081019050620001a5565b83811115620001d2576000848401525b50505050565b6000601f19601f8301169050919050565b610fe480620001f96000396000f3fe608060405234801561001057600080fd5b506004361061004c5760003560e01c8063449d46c0146100515780636cdca0ea1461006d5780639a2cdc081461009d578063bd43a908146100bb575b600080fd5b61006b6004803603810190610066919061090e565b6100d9565b005b610087600480360381019061008291906108e5565b6103a3565b6040516100949190610c5b565b60405180910390f35b6100a561046b565b6040516100b29190610c5b565b60405180910390f35b6100c3610474565b6040516100d09190610b54565b60405180910390f35b60016000808282546100eb9190610d6d565b9250508190555060018060003373ffffffffffffffffffffffffffffffffffffffff1673ffffffffffffffffffffffffffffffffffffffff16815260200190815260200160002060008282546101419190610d6d565b925050819055506101886040518060400160405280601d81526020017f25732069732077617665642077697468206d6573736167653a20257321000000815250338361065e565b600260405180606001604052803373ffffffffffffffffffffffffffffffffffffffff16815260200183815260200142815250908060018154018082558091505060019003906000526020600020906003020160009091909190915060008201518160000160006101000a81548173ffffffffffffffffffffffffffffffffffffffff021916908373ffffffffffffffffffffffffffffffffffffffff16021790555060208201518160010190805190602001906102479291906107c5565b506040820151816002015550503373ffffffffffffffffffffffffffffffffffffffff167f5f7e16dc676677766a70e9c5628aa6c54ddb8b6e5188e2ae1e1f17f1ffbea716428360405161029c929190610c76565b60405180910390a26000655af3107a40009050478111156102f2576040517f08c379a00000000000000000000000000000000000000000000000000000000081526004016102e990610c1b565b60405180910390fd5b60003373ffffffffffffffffffffffffffffffffffffffff168260405161031890610b3f565b60006040518083038185875af1925050503d8060008114610355576040519150601f19603f3d011682016040523d82523d6000602084013e61035a565b606091505b505090508061039e576040517f08c379a000000000000000000000000000000000000000000000000000000000815260040161039590610c3b565b60405180910390fd5b505050565b60006104246040518060400160405280600f81526020017f257320686173202564207761766573000000000000000000000000000000000081525083600160008673ffffffffffffffffffffffffffffffffffffffff1673ffffffffffffffffffffffffffffffffffffffff168152602001908152602001600020546106fd565b600160008373ffffffffffffffffffffffffffffffffffffffff1673ffffffffffffffffffffffffffffffffffffffff168152602001908152602001600020549050919050565b60008054905090565b60606002805480602002602001604051908101604052809291908181526020016000905b828210156105bc57838290600052602060002090600302016040518060600160405290816000820160009054906101000a900473ffffffffffffffffffffffffffffffffffffffff1673ffffffffffffffffffffffffffffffffffffffff1673ffffffffffffffffffffffffffffffffffffffff16815260200160018201805461052190610e41565b80601f016020809104026020016040519081016040528092919081815260200182805461054d90610e41565b801561059a5780601f1061056f5761010080835404028352916020019161059a565b820191906000526020600020905b81548152906001019060200180831161057d57829003601f168201915b5050505050815260200160028201548152505081526020019060010190610498565b50505050905090565b61065b816040516024016105d99190610b76565b6040516020818303038152906040527f41304fac000000000000000000000000000000000000000000000000000000007bffffffffffffffffffffffffffffffffffffffffffffffffffffffff19166020820180517bffffffffffffffffffffffffffffffffffffffffffffffffffffffff838183161783525050505061079c565b50565b6106f883838360405160240161067693929190610b98565b6040516020818303038152906040527fe0e9ad4f000000000000000000000000000000000000000000000000000000007bffffffffffffffffffffffffffffffffffffffffffffffffffffffff19166020820180517bffffffffffffffffffffffffffffffffffffffffffffffffffffffff838183161783525050505061079c565b505050565b61079783838360405160240161071593929190610bdd565b6040516020818303038152906040527f07c81217000000000000000000000000000000000000000000000000000000007bffffffffffffffffffffffffffffffffffffffffffffffffffffffff19166020820180517bffffffffffffffffffffffffffffffffffffffffffffffffffffffff838183161783525050505061079c565b505050565b60008151905060006a636f6e736f6c652e6c6f679050602083016000808483855afa5050505050565b8280546107d190610e41565b90600052602060002090601f0160209004810192826107f3576000855561083a565b82601f1061080c57805160ff191683800117855561083a565b8280016001018555821561083a579182015b8281111561083957825182559160200191906001019061081e565b5b509050610847919061084b565b5090565b5b8082111561086457600081600090555060010161084c565b5090565b600061087b61087684610ccb565b610ca6565b90508281526020810184848401111561089357600080fd5b61089e848285610dff565b509392505050565b6000813590506108b581610f97565b92915050565b600082601f8301126108cc57600080fd5b81356108dc848260208601610868565b91505092915050565b6000602082840312156108f757600080fd5b6000610905848285016108a6565b91505092915050565b60006020828403121561092057600080fd5b600082013567ffffffffffffffff81111561093a57600080fd5b610946848285016108bb565b91505092915050565b600061095b8383610ad1565b905092915050565b61096c81610dc3565b82525050565b61097b81610dc3565b82525050565b600061098c82610d0c565b6109968185610d2f565b9350836020820285016109a885610cfc565b8060005b858110156109e457848403895281516109c5858261094f565b94506109d083610d22565b925060208a019950506001810190506109ac565b50829750879550505050505092915050565b6000610a0182610d17565b610a0b8185610d4b565b9350610a1b818560208601610e0e565b610a2481610f31565b840191505092915050565b6000610a3a82610d17565b610a448185610d5c565b9350610a54818560208601610e0e565b610a5d81610f31565b840191505092915050565b6000610a75601283610d5c565b9150610a8082610f42565b602082019050919050565b6000610a98601483610d5c565b9150610aa382610f6b565b602082019050919050565b6000610abb600083610d40565b9150610ac682610f94565b600082019050919050565b6000606083016000830151610ae96000860182610963565b5060208301518482036020860152610b0182826109f6565b9150506040830151610b166040860182610b21565b508091505092915050565b610b2a81610df5565b82525050565b610b3981610df5565b82525050565b6000610b4a82610aae565b9150819050919050565b60006020820190508181036000830152610b6e8184610981565b905092915050565b60006020820190508181036000830152610b908184610a2f565b905092915050565b60006060820190508181036000830152610bb28186610a2f565b9050610bc16020830185610972565b8181036040830152610bd38184610a2f565b9050949350505050565b60006060820190508181036000830152610bf78186610a2f565b9050610c066020830185610972565b610c136040830184610b30565b949350505050565b60006020820190508181036000830152610c3481610a68565b9050919050565b60006020820190508181036000830152610c5481610a8b565b9050919050565b6000602082019050610c706000830184610b30565b92915050565b6000604082019050610c8b6000830185610b30565b8181036020830152610c9d8184610a2f565b90509392505050565b6000610cb0610cc1565b9050610cbc8282610e73565b919050565b6000604051905090565b600067ffffffffffffffff821115610ce657610ce5610f02565b5b610cef82610f31565b9050602081019050919050565b6000819050602082019050919050565b600081519050919050565b600081519050919050565b6000602082019050919050565b600082825260208201905092915050565b600081905092915050565b600082825260208201905092915050565b600082825260208201905092915050565b6000610d7882610df5565b9150610d8383610df5565b9250827fffffffffffffffffffffffffffffffffffffffffffffffffffffffffffffffff03821115610db857610db7610ea4565b5b828201905092915050565b6000610dce82610dd5565b9050919050565b600073ffffffffffffffffffffffffffffffffffffffff82169050919050565b6000819050919050565b82818337600083830152505050565b60005b83811015610e2c578082015181840152602081019050610e11565b83811115610e3b576000848401525b50505050565b60006002820490506001821680610e5957607f821691505b60208210811415610e6d57610e6c610ed3565b5b50919050565b610e7c82610f31565b810181811067ffffffffffffffff82111715610e9b57610e9a610f02565b5b80604052505050565b7f4e487b7100000000000000000000000000000000000000000000000000000000600052601160045260246000fd5b7f4e487b7100000000000000000000000000000000000000000000000000000000600052602260045260246000fd5b7f4e487b7100000000000000000000000000000000000000000000000000000000600052604160045260246000fd5b6000601f19601f8301169050919050565b7f496e73756666696369656e742066756e64730000000000000000000000000000600082015250565b7f4661696c656420746f2073656e64206574686572000000000000000000000000600082015250565b50565b610fa081610dc3565b8114610fab57600080fd5b5056fea2646970667358221220866948d6233ee366c2eb4c693859a4252dffa5295582ec4b7b6f3b8560734b7c64736f6c63430008040033",
  "linkReferences": {},
  "deployedLinkReferences": {}
}